{
  "contractName": "Ownership",
  "abi": [
    {
      "constant": true,
      "inputs": [],
      "name": "ownerAddress",
      "outputs": [
        {
          "name": "",
          "type": "address"
        }
      ],
      "payable": false,
      "stateMutability": "view",
      "type": "function"
    },
    {
      "inputs": [],
      "payable": false,
      "stateMutability": "nonpayable",
      "type": "constructor"
    },
    {
      "anonymous": false,
      "inputs": [
        {
          "indexed": false,
          "name": "serialNumber",
          "type": "string"
        },
        {
          "indexed": true,
          "name": "owner",
          "type": "address"
        }
      ],
      "name": "GunRegistered",
      "type": "event"
    },
    {
      "anonymous": false,
      "inputs": [
        {
          "indexed": false,
          "name": "serialNumber",
          "type": "string"
        },
        {
          "indexed": true,
          "name": "oldOwner",
          "type": "address"
        },
        {
          "indexed": true,
          "name": "newOwner",
          "type": "address"
        }
      ],
      "name": "OwnershipTransferred",
      "type": "event"
    },
    {
      "constant": false,
      "inputs": [
        {
          "name": "serialNumber",
          "type": "string"
        }
      ],
      "name": "registerGun",
      "outputs": [],
      "payable": false,
      "stateMutability": "nonpayable",
      "type": "function"
    },
    {
      "constant": false,
      "inputs": [
        {
          "name": "serialNumber",
          "type": "string"
        },
        {
          "name": "newOwnerAddress",
          "type": "address"
        }
      ],
      "name": "transferOwnership",
      "outputs": [],
      "payable": false,
      "stateMutability": "nonpayable",
      "type": "function"
    },
    {
      "constant": true,
      "inputs": [
        {
          "name": "owner",
          "type": "address"
        }
      ],
      "name": "getGunsByOwner",
      "outputs": [
        {
          "name": "",
          "type": "string[]"
        }
      ],
      "payable": false,
      "stateMutability": "view",
      "type": "function"
    },
    {
      "constant": true,
      "inputs": [
        {
          "name": "serialNumber",
          "type": "string"
        }
      ],
      "name": "getOwner",
      "outputs": [
        {
          "name": "",
          "type": "address"
        }
      ],
      "payable": false,
      "stateMutability": "view",
      "type": "function"
    }
  ],
  "bytecode": "0x608060405234801561001057600080fd5b50336000806101000a81548173ffffffffffffffffffffffffffffffffffffffff021916908373ffffffffffffffffffffffffffffffffffffffff1602179055506112da806100606000396000f3fe608060405260043610610067576000357c01000000000000000000000000000000000000000000000000000000009004806326123dcf1461006c5780634aaf4a12146100955780638f84aa09146100d2578063c0e793c2146100fd578063d79e154b14610126575b600080fd5b34801561007857600080fd5b50610093600480360361008e9190810190610e47565b610163565b005b3480156100a157600080fd5b506100bc60048036036100b79190810190610e47565b6103f4565b6040516100c991906110b6565b60405180910390f35b3480156100de57600080fd5b506100e761048c565b6040516100f491906110b6565b60405180910390f35b34801561010957600080fd5b50610124600480360361011f9190810190610e88565b6104b1565b005b34801561013257600080fd5b5061014d60048036036101489190810190610e1e565b610a98565b60405161015a91906110d1565b60405180910390f35b60006001826040518082805190602001908083835b60208310151561019d5780518252602082019150602081019050602083039250610178565b6001836020036101000a038019825116818451168082178552505050505050905001915050908152602001604051809103902060000180546001816001161561010002031660029004905014151561022a576040517f08c379a000000000000000000000000000000000000000000000000000000000815260040161022190611135565b60405180910390fd5b60408051908101604052808281526020013373ffffffffffffffffffffffffffffffffffffffff168152506001826040518082805190602001908083835b60208310151561028d5780518252602082019150602081019050602083039250610268565b6001836020036101000a038019825116818451168082178552505050505050905001915050908152602001604051809103902060008201518160000190805190602001906102dc929190610bc0565b5060208201518160010160006101000a81548173ffffffffffffffffffffffffffffffffffffffff021916908373ffffffffffffffffffffffffffffffffffffffff160217905550905050600260003373ffffffffffffffffffffffffffffffffffffffff1673ffffffffffffffffffffffffffffffffffffffff1681526020019081526020016000208190806001815401808255809150509060018203906000526020600020016000909192909190915090805190602001906103a1929190610c40565b50503373ffffffffffffffffffffffffffffffffffffffff167f420ec4afff6059220ec203e205fdc2c14cc3bfe862f3830e66bfdc813137167d826040516103e991906110f3565b60405180910390a250565b60006001826040518082805190602001908083835b60208310151561042e5780518252602082019150602081019050602083039250610409565b6001836020036101000a038019825116818451168082178552505050505050905001915050908152602001604051809103902060010160009054906101000a900473ffffffffffffffffffffffffffffffffffffffff169050919050565b6000809054906101000a900473ffffffffffffffffffffffffffffffffffffffff1681565b3373ffffffffffffffffffffffffffffffffffffffff166001836040518082805190602001908083835b60208310151561050057805182526020820191506020810190506020830392506104db565b6001836020036101000a038019825116818451168082178552505050505050905001915050908152602001604051809103902060010160009054906101000a900473ffffffffffffffffffffffffffffffffffffffff1673ffffffffffffffffffffffffffffffffffffffff161415156105af576040517f08c379a00000000000000000000000000000000000000000000000000000000081526004016105a690611155565b60405180910390fd5b60006001836040518082805190602001908083835b6020831015156105e957805182526020820191506020810190506020830392506105c4565b6001836020036101000a038019825116818451168082178552505050505050905001915050908152602001604051809103902060000180546001816001161561010002031660029004905014151515610677576040517f08c379a000000000000000000000000000000000000000000000000000000000815260040161066e90611115565b60405180910390fd5b60006001836040518082805190602001908083835b6020831015156106b1578051825260208201915060208101905060208303925061068c565b6001836020036101000a038019825116818451168082178552505050505050905001915050908152602001604051809103902060010160009054906101000a900473ffffffffffffffffffffffffffffffffffffffff169050816001846040518082805190602001908083835b602083101515610743578051825260208201915060208101905060208303925061071e565b6001836020036101000a038019825116818451168082178552505050505050905001915050908152602001604051809103902060010160006101000a81548173ffffffffffffffffffffffffffffffffffffffff021916908373ffffffffffffffffffffffffffffffffffffffff1602179055506000600260008373ffffffffffffffffffffffffffffffffffffffff1673ffffffffffffffffffffffffffffffffffffffff16815260200190815260200160002090506000600260008573ffffffffffffffffffffffffffffffffffffffff1673ffffffffffffffffffffffffffffffffffffffff168152602001908152602001600020905060008090505b82805490508110156109ed57856040516020018082805190602001908083835b6020831015156108885780518252602082019150602081019050602083039250610863565b6001836020036101000a0380198251168184511680821785525050505050509050019150506040516020818303038152906040528051906020012083828154811015156108d157fe5b9060005260206000200160405160200180828054600181600116156101000203166002900480156109395780601f10610917576101008083540402835291820191610939565b820191906000526020600020905b815481529060010190602001808311610925575b50509150506040516020818303038152906040528051906020012014156109e05782600184805490500381548110151561096f57fe5b90600052602060002001838281548110151561098757fe5b9060005260206000200190805460018160011615610100020316600290046109b0929190610cc0565b508280548015156109bd57fe5b6001900381819060005260206000200160006109d99190610d47565b90556109ed565b8080600101915050610843565b5080859080600181540180825580915050906001820390600052602060002001600090919290919091509080519060200190610a2a929190610c40565b50508373ffffffffffffffffffffffffffffffffffffffff168373ffffffffffffffffffffffffffffffffffffffff167f6840904f5b31827f74e1497360da245f56e530c8c3de3163a2d31f11493273c687604051610a8991906110f3565b60405180910390a35050505050565b6060600260008373ffffffffffffffffffffffffffffffffffffffff1673ffffffffffffffffffffffffffffffffffffffff168152602001908152602001600020805480602002602001604051908101604052809291908181526020016000905b82821015610bb5578382906000526020600020018054600181600116156101000203166002900480601f016020809104026020016040519081016040528092919081815260200182805460018160011615610100020316600290048015610ba15780601f10610b7657610100808354040283529160200191610ba1565b820191906000526020600020905b815481529060010190602001808311610b8457829003601f168201915b505050505081526020019060010190610af9565b505050509050919050565b828054600181600116156101000203166002900490600052602060002090601f016020900481019282601f10610c0157805160ff1916838001178555610c2f565b82800160010185558215610c2f579182015b82811115610c2e578251825591602001919060010190610c13565b5b509050610c3c9190610d8f565b5090565b828054600181600116156101000203166002900490600052602060002090601f016020900481019282601f10610c8157805160ff1916838001178555610caf565b82800160010185558215610caf579182015b82811115610cae578251825591602001919060010190610c93565b5b509050610cbc9190610d8f565b5090565b828054600181600116156101000203166002900490600052602060002090601f016020900481019282601f10610cf95780548555610d36565b82800160010185558215610d3657600052602060002091601f016020900482015b82811115610d35578254825591600101919060010190610d1a565b5b509050610d439190610d8f565b5090565b50805460018160011615610100020316600290046000825580601f10610d6d5750610d8c565b601f016020900490600052602060002090810190610d8b9190610d8f565b5b50565b610db191905b80821115610dad576000816000905550600101610d95565b5090565b90565b6000610dc0823561123b565b905092915050565b600082601f8301121515610ddb57600080fd5b8135610dee610de9826111a2565b611175565b91508082526020830160208301858383011115610e0a57600080fd5b610e1583828461124d565b50505092915050565b600060208284031215610e3057600080fd5b6000610e3e84828501610db4565b91505092915050565b600060208284031215610e5957600080fd5b600082013567ffffffffffffffff811115610e7357600080fd5b610e7f84828501610dc8565b91505092915050565b60008060408385031215610e9b57600080fd5b600083013567ffffffffffffffff811115610eb557600080fd5b610ec185828601610dc8565b9250506020610ed285828601610db4565b9150509250929050565b610ee581611209565b82525050565b6000610ef6826111db565b80845260208401935083602082028501610f0f856111ce565b60005b84811015610f48578383038852610f2a838351610f8f565b9250610f35826111fc565b9150602088019750600181019050610f12565b508196508694505050505092915050565b6000610f64826111f1565b808452610f7881602086016020860161125c565b610f818161128f565b602085010191505092915050565b6000610f9a826111e6565b808452610fae81602086016020860161125c565b610fb78161128f565b602085010191505092915050565b6000603582527f4974656d206d7573742062652072656769737465726564206265666f7265207460208301527f72616e7366657272696e67206f776e65727368697000000000000000000000006040830152606082019050919050565b6000601782527f4974656d20616c726561647920726567697374657265640000000000000000006020830152604082019050919050565b6000602282527f596f7520617265206e6f7420746865206f776e6572206f66207468697320697460208301527f656d0000000000000000000000000000000000000000000000000000000000006040830152606082019050919050565b60006020820190506110cb6000830184610edc565b92915050565b600060208201905081810360008301526110eb8184610eeb565b905092915050565b6000602082019050818103600083015261110d8184610f59565b905092915050565b6000602082019050818103600083015261112e81610fc5565b9050919050565b6000602082019050818103600083015261114e81611022565b9050919050565b6000602082019050818103600083015261116e81611059565b9050919050565b6000604051905081810181811067ffffffffffffffff8211171561119857600080fd5b8060405250919050565b600067ffffffffffffffff8211156111b957600080fd5b601f19601f8301169050602081019050919050565b6000602082019050919050565b600081519050919050565b600081519050919050565b600081519050919050565b6000602082019050919050565b60006112148261121b565b9050919050565b600073ffffffffffffffffffffffffffffffffffffffff82169050919050565b60006112468261121b565b9050919050565b82818337600083830152505050565b60005b8381101561127a57808201518184015260208101905061125f565b83811115611289576000848401525b50505050565b6000601f19601f830116905091905056fea265627a7a72305820e01972ca583715972a5a7dd121f72a3a62c4771771a75c1f7b187197edf17c8d6c6578706572696d656e74616cf50037",
  "source": "// SPDX-License-Identifier: MIT\npragma solidity >=0.4.22 <0.9.0;\npragma experimental ABIEncoderV2; //required to return string[]\n\ncontract Ownership {\n  address public ownerAddress;\n  struct Gun {\n    string serialNumber;\n    address owner; \n  }\n\n  mapping(string => Gun) private serialNumToGun; //maps serial number to gun\n  mapping(address => string[]) private addressToGuns; //maps address to guns\n\n  event GunRegistered(string serialNumber, address indexed owner);\n  event OwnershipTransferred(string serialNumber, address indexed oldOwner, address indexed newOwner);\n\n  constructor() public {\n    ownerAddress = msg.sender;\n  }\n\n  function registerGun(string memory serialNumber) public {\n    require(bytes(serialNumToGun[serialNumber].serialNumber).length == 0, \"Item already registered\");\n\n    serialNumToGun[serialNumber] = Gun(serialNumber, msg.sender);\n    addressToGuns[msg.sender].push(serialNumber);\n\n    emit GunRegistered(serialNumber, msg.sender);\n  }\n\n  function transferOwnership(string memory serialNumber, address newOwnerAddress) public {\n    require(serialNumToGun[serialNumber].owner == msg.sender, \"You are not the owner of this item\");\n    require(bytes(serialNumToGun[serialNumber].serialNumber).length != 0, \"Item must be registered before transferring ownership\");\n\n    address oldOwnerAddress = serialNumToGun[serialNumber].owner;\n    serialNumToGun[serialNumber].owner = newOwnerAddress;\n\n    string[] storage oldOwnerGuns = addressToGuns[oldOwnerAddress]; //getting the array of guns owned by old owner\n    string[] storage newOwnerGuns = addressToGuns[newOwnerAddress]; //getting the array of guns owned by new owner\n\n    for (uint256 i = 0; i < oldOwnerGuns.length; i++) {\n        if (keccak256(abi.encodePacked(oldOwnerGuns[i])) == keccak256(abi.encodePacked(serialNumber))) {\n            oldOwnerGuns[i] = oldOwnerGuns[oldOwnerGuns.length - 1];\n            oldOwnerGuns.pop();\n            break;\n        }\n    }\n\n    newOwnerGuns.push(serialNumber);\n    emit OwnershipTransferred(serialNumber, oldOwnerAddress, newOwnerAddress);\n  }\n\n  function getGunsByOwner(address owner) public view returns (string[] memory) {\n    return addressToGuns[owner];\n  }\n\n  function getOwner(string memory serialNumber) public view returns (address) {\n    return serialNumToGun[serialNumber].owner;\n  }\n}",
  "sourcePath": "/Users/weijie/Documents/MyProjects/eth-toronto-smart-contract/contracts/contract.sol",
  "compiler": {
    "name": "solc",
    "version": "0.5.1+commit.c8a2cb62.Emscripten.clang"
  },
  "schemaVersion": "3.4.16",
  "updatedAt": "2024-08-10T19:23:00.986Z",
  "devdoc": {
    "methods": {}
  },
  "userdoc": {
    "methods": {}
  }
}