{
  "contractName": "Ownership",
  "abi": [
    {
      "constant": true,
      "inputs": [],
      "name": "ownerAddress",
      "outputs": [
        {
          "name": "",
          "type": "address"
        }
      ],
      "payable": false,
      "stateMutability": "view",
      "type": "function"
    },
    {
      "inputs": [],
      "payable": false,
      "stateMutability": "nonpayable",
      "type": "constructor"
    },
    {
      "anonymous": false,
      "inputs": [
        {
          "indexed": false,
          "name": "serialNumber",
          "type": "string"
        },
        {
          "indexed": true,
          "name": "owner",
          "type": "address"
        }
      ],
      "name": "GunRegistered",
      "type": "event"
    },
    {
      "anonymous": false,
      "inputs": [
        {
          "indexed": true,
          "name": "hashedSerial",
          "type": "bytes32"
        },
        {
          "indexed": true,
          "name": "oldOwner",
          "type": "address"
        },
        {
          "indexed": true,
          "name": "newOwner",
          "type": "address"
        }
      ],
      "name": "OwnershipTransferred",
      "type": "event"
    },
    {
      "constant": false,
      "inputs": [
        {
          "name": "serialNumber",
          "type": "string"
        }
      ],
      "name": "registerGun",
      "outputs": [],
      "payable": false,
      "stateMutability": "nonpayable",
      "type": "function"
    },
    {
      "constant": false,
      "inputs": [
        {
          "name": "serialNumber",
          "type": "string"
        },
        {
          "name": "newOwnerAddress",
          "type": "address"
        }
      ],
      "name": "transferOwnership",
      "outputs": [],
      "payable": false,
      "stateMutability": "nonpayable",
      "type": "function"
    },
    {
      "constant": true,
      "inputs": [
        {
          "name": "owner",
          "type": "address"
        }
      ],
      "name": "getGunsByOwner",
      "outputs": [
        {
          "name": "",
          "type": "string[]"
        }
      ],
      "payable": false,
      "stateMutability": "view",
      "type": "function"
    },
    {
      "constant": true,
      "inputs": [
        {
          "name": "serialNumber",
          "type": "string"
        }
      ],
      "name": "getOwner",
      "outputs": [
        {
          "name": "",
          "type": "address"
        }
      ],
      "payable": false,
      "stateMutability": "view",
      "type": "function"
    },
    {
      "constant": true,
      "inputs": [
        {
          "name": "serial",
          "type": "string"
        }
      ],
      "name": "getHashedSerialNum",
      "outputs": [
        {
          "name": "",
          "type": "bytes32"
        }
      ],
      "payable": false,
      "stateMutability": "pure",
      "type": "function"
    }
  ],
  "bytecode": "0x608060405234801561001057600080fd5b50336000806101000a81548173ffffffffffffffffffffffffffffffffffffffff021916908373ffffffffffffffffffffffffffffffffffffffff160217905550611442806100606000396000f3fe608060405260043610610072576000357c01000000000000000000000000000000000000000000000000000000009004806326123dcf146100775780634aaf4a12146100a05780636f4434c6146100dd5780638f84aa091461011a578063c0e793c214610145578063d79e154b1461016e575b600080fd5b34801561008357600080fd5b5061009e60048036036100999190810190610f7b565b6101ab565b005b3480156100ac57600080fd5b506100c760048036036100c29190810190610f7b565b61043c565b6040516100d491906111f9565b60405180910390f35b3480156100e957600080fd5b5061010460048036036100ff9190810190610f7b565b6104d4565b6040516101119190611236565b60405180910390f35b34801561012657600080fd5b5061012f610551565b60405161013c91906111f9565b60405180910390f35b34801561015157600080fd5b5061016c60048036036101679190810190610fbc565b610576565b005b34801561017a57600080fd5b5061019560048036036101909190810190610f52565b610bcc565b6040516101a29190611214565b60405180910390f35b60006001826040518082805190602001908083835b6020831015156101e557805182526020820191506020810190506020830392506101c0565b6001836020036101000a0380198251168184511680821785525050505050509050019150509081526020016040518091039020600001805460018160011615610100020316600290049050141515610272576040517f08c379a000000000000000000000000000000000000000000000000000000000815260040161026990611293565b60405180910390fd5b60408051908101604052808281526020013373ffffffffffffffffffffffffffffffffffffffff168152506001826040518082805190602001908083835b6020831015156102d557805182526020820191506020810190506020830392506102b0565b6001836020036101000a03801982511681845116808217855250505050505090500191505090815260200160405180910390206000820151816000019080519060200190610324929190610cf4565b5060208201518160010160006101000a81548173ffffffffffffffffffffffffffffffffffffffff021916908373ffffffffffffffffffffffffffffffffffffffff160217905550905050600260003373ffffffffffffffffffffffffffffffffffffffff1673ffffffffffffffffffffffffffffffffffffffff1681526020019081526020016000208190806001815401808255809150509060018203906000526020600020016000909192909190915090805190602001906103e9929190610d74565b50503373ffffffffffffffffffffffffffffffffffffffff167f420ec4afff6059220ec203e205fdc2c14cc3bfe862f3830e66bfdc813137167d826040516104319190611251565b60405180910390a250565b60006001826040518082805190602001908083835b6020831015156104765780518252602082019150602081019050602083039250610451565b6001836020036101000a038019825116818451168082178552505050505050905001915050908152602001604051809103902060010160009054906101000a900473ffffffffffffffffffffffffffffffffffffffff169050919050565b6000816040516020018082805190602001908083835b60208310151561050f57805182526020820191506020810190506020830392506104ea565b6001836020036101000a038019825116818451168082178552505050505050905001915050604051602081830303815290604052805190602001209050919050565b6000809054906101000a900473ffffffffffffffffffffffffffffffffffffffff1681565b3373ffffffffffffffffffffffffffffffffffffffff166001836040518082805190602001908083835b6020831015156105c557805182526020820191506020810190506020830392506105a0565b6001836020036101000a038019825116818451168082178552505050505050905001915050908152602001604051809103902060010160009054906101000a900473ffffffffffffffffffffffffffffffffffffffff1673ffffffffffffffffffffffffffffffffffffffff16141515610674576040517f08c379a000000000000000000000000000000000000000000000000000000000815260040161066b906112b3565b60405180910390fd5b60006001836040518082805190602001908083835b6020831015156106ae5780518252602082019150602081019050602083039250610689565b6001836020036101000a03801982511681845116808217855250505050505090500191505090815260200160405180910390206000018054600181600116156101000203166002900490501415151561073c576040517f08c379a000000000000000000000000000000000000000000000000000000000815260040161073390611273565b60405180910390fd5b60006001836040518082805190602001908083835b6020831015156107765780518252602082019150602081019050602083039250610751565b6001836020036101000a038019825116818451168082178552505050505050905001915050908152602001604051809103902060010160009054906101000a900473ffffffffffffffffffffffffffffffffffffffff169050816001846040518082805190602001908083835b60208310151561080857805182526020820191506020810190506020830392506107e3565b6001836020036101000a038019825116818451168082178552505050505050905001915050908152602001604051809103902060010160006101000a81548173ffffffffffffffffffffffffffffffffffffffff021916908373ffffffffffffffffffffffffffffffffffffffff1602179055506000600260008373ffffffffffffffffffffffffffffffffffffffff1673ffffffffffffffffffffffffffffffffffffffff16815260200190815260200160002090506000600260008573ffffffffffffffffffffffffffffffffffffffff1673ffffffffffffffffffffffffffffffffffffffff168152602001908152602001600020905060008090505b8280549050811015610ab257856040516020018082805190602001908083835b60208310151561094d5780518252602082019150602081019050602083039250610928565b6001836020036101000a03801982511681845116808217855250505050505090500191505060405160208183030381529060405280519060200120838281548110151561099657fe5b9060005260206000200160405160200180828054600181600116156101000203166002900480156109fe5780601f106109dc5761010080835404028352918201916109fe565b820191906000526020600020905b8154815290600101906020018083116109ea575b5050915050604051602081830303815290604052805190602001201415610aa557826001848054905003815481101515610a3457fe5b906000526020600020018382815481101515610a4c57fe5b906000526020600020019080546001816001161561010002031660029004610a75929190610df4565b50828054801515610a8257fe5b600190038181906000526020600020016000610a9e9190610e7b565b9055610ab2565b8080600101915050610908565b5080859080600181540180825580915050906001820390600052602060002001600090919290919091509080519060200190610aef929190610d74565b50506000856040516020018082805190602001908083835b602083101515610b2c5780518252602082019150602081019050602083039250610b07565b6001836020036101000a0380198251168184511680821785525050505050509050019150506040516020818303038152906040528051906020012090508473ffffffffffffffffffffffffffffffffffffffff168473ffffffffffffffffffffffffffffffffffffffff16827f0b659dccc8eb950324170e8d9598af5ee04ee070883eb28651a96788721fbf8360405160405180910390a4505050505050565b6060600260008373ffffffffffffffffffffffffffffffffffffffff1673ffffffffffffffffffffffffffffffffffffffff168152602001908152602001600020805480602002602001604051908101604052809291908181526020016000905b82821015610ce9578382906000526020600020018054600181600116156101000203166002900480601f016020809104026020016040519081016040528092919081815260200182805460018160011615610100020316600290048015610cd55780601f10610caa57610100808354040283529160200191610cd5565b820191906000526020600020905b815481529060010190602001808311610cb857829003601f168201915b505050505081526020019060010190610c2d565b505050509050919050565b828054600181600116156101000203166002900490600052602060002090601f016020900481019282601f10610d3557805160ff1916838001178555610d63565b82800160010185558215610d63579182015b82811115610d62578251825591602001919060010190610d47565b5b509050610d709190610ec3565b5090565b828054600181600116156101000203166002900490600052602060002090601f016020900481019282601f10610db557805160ff1916838001178555610de3565b82800160010185558215610de3579182015b82811115610de2578251825591602001919060010190610dc7565b5b509050610df09190610ec3565b5090565b828054600181600116156101000203166002900490600052602060002090601f016020900481019282601f10610e2d5780548555610e6a565b82800160010185558215610e6a57600052602060002091601f016020900482015b82811115610e69578254825591600101919060010190610e4e565b5b509050610e779190610ec3565b5090565b50805460018160011615610100020316600290046000825580601f10610ea15750610ec0565b601f016020900490600052602060002090810190610ebf9190610ec3565b5b50565b610ee591905b80821115610ee1576000816000905550600101610ec9565b5090565b90565b6000610ef482356113a3565b905092915050565b600082601f8301121515610f0f57600080fd5b8135610f22610f1d82611300565b6112d3565b91508082526020830160208301858383011115610f3e57600080fd5b610f498382846113b5565b50505092915050565b600060208284031215610f6457600080fd5b6000610f7284828501610ee8565b91505092915050565b600060208284031215610f8d57600080fd5b600082013567ffffffffffffffff811115610fa757600080fd5b610fb384828501610efc565b91505092915050565b60008060408385031215610fcf57600080fd5b600083013567ffffffffffffffff811115610fe957600080fd5b610ff585828601610efc565b925050602061100685828601610ee8565b9150509250929050565b61101981611367565b82525050565b600061102a82611339565b808452602084019350836020820285016110438561132c565b60005b8481101561107c57838303885261105e8383516110d2565b92506110698261135a565b9150602088019750600181019050611046565b508196508694505050505092915050565b61109681611379565b82525050565b60006110a78261134f565b8084526110bb8160208601602086016113c4565b6110c4816113f7565b602085010191505092915050565b60006110dd82611344565b8084526110f18160208601602086016113c4565b6110fa816113f7565b602085010191505092915050565b6000603582527f4974656d206d7573742062652072656769737465726564206265666f7265207460208301527f72616e7366657272696e67206f776e65727368697000000000000000000000006040830152606082019050919050565b6000601782527f4974656d20616c726561647920726567697374657265640000000000000000006020830152604082019050919050565b6000602282527f596f7520617265206e6f7420746865206f776e6572206f66207468697320697460208301527f656d0000000000000000000000000000000000000000000000000000000000006040830152606082019050919050565b600060208201905061120e6000830184611010565b92915050565b6000602082019050818103600083015261122e818461101f565b905092915050565b600060208201905061124b600083018461108d565b92915050565b6000602082019050818103600083015261126b818461109c565b905092915050565b6000602082019050818103600083015261128c81611108565b9050919050565b600060208201905081810360008301526112ac81611165565b9050919050565b600060208201905081810360008301526112cc8161119c565b9050919050565b6000604051905081810181811067ffffffffffffffff821117156112f657600080fd5b8060405250919050565b600067ffffffffffffffff82111561131757600080fd5b601f19601f8301169050602081019050919050565b6000602082019050919050565b600081519050919050565b600081519050919050565b600081519050919050565b6000602082019050919050565b600061137282611383565b9050919050565b6000819050919050565b600073ffffffffffffffffffffffffffffffffffffffff82169050919050565b60006113ae82611383565b9050919050565b82818337600083830152505050565b60005b838110156113e25780820151818401526020810190506113c7565b838111156113f1576000848401525b50505050565b6000601f19601f830116905091905056fea265627a7a723058209c102660f3e7b25ea01232af9c2f6dd3b5d1915524625997822bf6234b64229c6c6578706572696d656e74616cf50037",
  "source": "// SPDX-License-Identifier: MIT\npragma solidity >=0.4.22 <0.9.0;\npragma experimental ABIEncoderV2; //required to return string[]\n\ncontract Ownership {\n  address public ownerAddress;\n  struct Gun {\n    string serialNumber;\n    address owner; \n  }\n\n  mapping(string => Gun) private serialNumToGun; //maps serial number to gun\n  mapping(address => string[]) private addressToGuns; //maps address to guns\n\n  event GunRegistered(string serialNumber, address indexed owner);\n  event OwnershipTransferred(bytes32 indexed hashedSerial, address indexed oldOwner, address indexed newOwner);\n\n  constructor() public {\n    ownerAddress = msg.sender;\n  }\n\n  function registerGun(string memory serialNumber) public {\n    require(bytes(serialNumToGun[serialNumber].serialNumber).length == 0, \"Item already registered\");\n\n    serialNumToGun[serialNumber] = Gun(serialNumber, msg.sender);\n    addressToGuns[msg.sender].push(serialNumber);\n\n    emit GunRegistered(serialNumber, msg.sender);\n  }\n\n  function transferOwnership(string memory serialNumber, address newOwnerAddress) public {\n    require(serialNumToGun[serialNumber].owner == msg.sender, \"You are not the owner of this item\");\n    require(bytes(serialNumToGun[serialNumber].serialNumber).length != 0, \"Item must be registered before transferring ownership\");\n\n    address oldOwnerAddress = serialNumToGun[serialNumber].owner;\n    serialNumToGun[serialNumber].owner = newOwnerAddress;\n\n    string[] storage oldOwnerGuns = addressToGuns[oldOwnerAddress]; //getting the array of guns owned by old owner\n    string[] storage newOwnerGuns = addressToGuns[newOwnerAddress]; //getting the array of guns owned by new owner\n\n    for (uint256 i = 0; i < oldOwnerGuns.length; i++) {\n        if (keccak256(abi.encodePacked(oldOwnerGuns[i])) == keccak256(abi.encodePacked(serialNumber))) {\n            oldOwnerGuns[i] = oldOwnerGuns[oldOwnerGuns.length - 1];\n            oldOwnerGuns.pop();\n            break;\n        }\n    }\n\n    newOwnerGuns.push(serialNumber);\n    bytes32 serialHashed = keccak256(abi.encodePacked(serialNumber));\n    emit OwnershipTransferred(serialHashed, oldOwnerAddress, newOwnerAddress);\n  }\n\n  function getGunsByOwner(address owner) public view returns (string[] memory) {\n    return addressToGuns[owner];\n  }\n\n  function getOwner(string memory serialNumber) public view returns (address) {\n    return serialNumToGun[serialNumber].owner;\n  }\n\n  function getHashedSerialNum(string memory serial) public pure returns (bytes32) {\n    return keccak256(abi.encodePacked(serial));\n  }\n}",
  "sourcePath": "/Users/weijie/Documents/MyProjects/eth-toronto-smart-contract/contracts/contract.sol",
  "compiler": {
    "name": "solc",
    "version": "0.5.1+commit.c8a2cb62.Emscripten.clang"
  },
  "schemaVersion": "3.4.16",
  "updatedAt": "2024-08-21T02:39:35.884Z",
  "devdoc": {
    "methods": {}
  },
  "userdoc": {
    "methods": {}
  }
}